:020000040800F2
:100000008817002001010008BF100008F70F000842
:10001000BD1000087D0100088919000800000000DB
:10002000000000000000000000000000951700081C
:100030009101000800000000C11000089917000895
:100040001B0100081B0100081B0100081B01000820
:100050001B0100081B0100081B0100081B01000810
:100060001B0100081B0100081B0100081B01000800
:100070001B0100081B0100081B0100081B010008F0
:100080001B0100081B0100081B0100081B010008E0
:100090001B0100081B0100081B0100081B010008D0
:1000A0001B0100081B0100081B0100081B010008C0
:1000B0001B0100081B0100081B0100081B010008B0
:1000C0001B0100081B0100081B0100081B010008A0
:1000D0001B0100081B0100081B0100081B01000890
:1000E0001B0100081B0100081B010008DFF80CD0F1
:1000F00000F032F800480047612D00088817002002
:100100000648804706480047FEE7FEE7FEE7FEE7B1
:10011000FEE7FEE7FEE7FEE7FEE7FEE71118000850
:10012000ED000008D2B201E000F8012B491EFBD21D
:1001300070470022F6E710B513460A4604461946F2
:10014000FFF7F0FF204610BD421C10F8011B0029EC
:10015000FBD1801A70470000064C074D06E0E068AE
:1001600040F0010394E8070098471034AC42F6D3FE
:10017000FFF7C0FFC8360008E8360008FEE70000B9
:1001800001221103014800F029B9000000080140D4
:1001900070470022AFF3008030B50E4B05460120BA
:1001A0005C7A012C15D8587A00241C54587A03EB39
:1001B000800045605D7A03F108002A54587A421C99
:1001C0005A72303008703A2048702F208870CC70F6
:1001D000002030BD7C13002070B5044600F004F907
:1001E0000546601C02D004480078044400F0FCF886
:1001F000401BA042FAD370BD240000202DE9F84F27
:10020000DFF8B891002409F1040A0AF1040B23462F
:100210000F270BF1040EC9E00125A5402A40AA4290
:100220007DD1674ED1F804C0ACEB0608B44532D09E
:1002300014DCBCF1030F3AD009DCBCF1000F2AD06A
:10024000BCF1010F1CD0BCF1020F31D11DE0BCF19B
:10025000110F17D0BCF1120F2AD119E0B8F5881F81
:1002600019D006DCB8F5803F15D0B8F5801F1FD136
:1002700011E0B8F5001F0ED0B8F5041F18D10AE040
:10028000CB6815E0CB681B1D12E0CB6808330FE08C
:10029000CB680C330CE08B682BB1012B4FF00803BB
:1002A00003D0456104E0042302E0056100E000237F
:1002B000FF2A01D8064601E000F104064FEA840552
:1002C00001D9A5F12005D6F8008007FA05FC28EA37
:1002D0000C0803FA05F548EA0508C6F800804D68E1
:1002E000ED0062D5374DAE6946F00106AE61AD69ED
:1002F00024F0030605F001050095334D06EB050CCF
:10030000DCF80850A607360F07FA06F825EA0805B4
:10031000DFF8B880404503D14FF0000817E044E013
:10032000DFF8AC80404502D14FF001080FE0DFF864
:10033000A480404502D14FF0020808E0DFF8988021
:10034000404502D14FF0030801E04FF0040808FADD
:1003500006F848EA0508CCF808804D68D9F800602E
:10036000ED034D4601D5164300E096432E604D68DF
:10037000DAF80060AD03554601D5164300E0964318
:100380002E604D68DBF80060ED025D4601D5164336
:1003900000E096432E604D68DEF80060AD027546C1
:1003A00001D5164300E096432E60641C0D682A4672
:1003B000E5407FF431AFBDE8F88F00000004014054
:1003C0000000111000100240000001400008014030
:1003D000000C014000100140001401400AB101610D
:1003E00070470904FBE7000001488068704700007F
:1003F000240000200248816802781144816070471F
:1004000024000020074810B5016841F01001016088
:10041000032000F067F8002000F006F800F024F850
:10042000002010BD0020024070B50D4D04464FF471
:100430007A712878B1FBF0F00A490968B1FBF0F055
:1004400000F0FAFC48B9102C07D200222146501EB9
:1004500000F028F800206C6070BD012070BD000025
:1004600024000020300000200C4808B5816941F0CC
:1004700001018161816901F001010091C16941F0CF
:100480008051C161C06900F080500090044841680B
:1004900021F0E06141F00071416008BD00100240B0
:1004A00000000140F0B40E4B1B680C46C3F302235E
:1004B000C3F10705042D00D90425191D072901D210
:1004C000002300E0DB1E012606FA05F1491E21404B
:1004D00099409E40761E16403143F0BC01F055BA5B
:1004E0000CED00E0064900F0070208684FF6FF0334
:1004F000184040EA0220034A104308607047000099
:100500000CED00E00000FA052DE9F0470F4605006C
:1005100061D0434E306800F00700B84209D230681D
:1005200020F0070038433060306800F00700B84220
:1005300051D128683B4C810712D5400703D560682C
:1005400040F4E06060602878000703D5606840F4FC
:10055000605060606068A96820F0F0000843606047
:100560002878C00728D06868012810D021680228A0
:1005700010D0890700292EDA616821F003010143B8
:100580006160FFF731FF804641F288390DE0216854
:100590008903EFE78901EDE7FFF726FFA0EB0801EC
:1005A000494502D90320BDE8F0876068696800F01A
:1005B0000C00B0EB810FEFD1306800F00700B842BB
:1005C0000BD9306820F0070038433060306800F005
:1005D0000700B84201D00120E5E72878400705D59B
:1005E0006068E96820F4E0600843606028780007EC
:1005F00006D56068296920F4605040EAC100606057
:1006000000F038F86168084AC1F30311515CC84032
:100610000649086006480068FFF706FF0020C2E7A9
:100620000020024000100240363100083000002057
:10063000280000200448054900684968044AC1F3BD
:100640000221515CC8407047300000200010024079
:10065000463100080448054900684968044AC1F366
:10066000C221515CC8407047300000200010024099
:100670004631000812A185B00FC98DE80F0014A003
:10068000144A006804905168134801F00C03042BCD
:1006900010D0082B0ED1C1F38343C9031DF803000A
:1006A0000AD5516804AAC1F34041515C0A4A50433B
:1006B000B0FBF1F005B0704708494843FAE7000085
:1006C00002030405060708090A0B0C0D0E0F101093
:1006D000010200000010024000127A0000093D00F3
:1006E0002DE9F84F040070D02078C04DC00749D0E4
:1006F0006868C0F38100012807D06868C0F38100F2
:10070000022809D16868C00306D52868800339D556
:1007100060680028E7D035E06068B0F5803F0BD016
:1007200010B1B0F5A02F11D0286820F480302860D7
:10073000286820F4802002E0286840F48030286097
:10074000606890B1FFF750FE06460AE0286840F462
:1007500080202860F0E700BFFFF746FE801B64287A
:1007600073D828688003F7D50CE0FFF73DFE0646F6
:1007700005E000BFFFF738FE801B6428F0D828682A
:100780008003F7D420789A4E80074FF001094FF08C
:10079000000839D5686810F00C0F07D06868C0F3FE
:1007A0008100022809D16868C00306D42868800740
:1007B00014D52069012808D110E02069B0B1C6F82D
:1007C0000090FFF711FE074605E00AE1FFF70CFE77
:1007D000C01B0228C4D828688007F7D5286861693B
:1007E00020F0F80040EAC10028600DE0C6F8008063
:1007F000FFF7FAFD074604E0FFF7F6FDC01B0228ED
:1008000023D828688007F7D4207800072CD57948AA
:10081000A169D9B1C0F80090FFF7E6FD074604E0F2
:10082000FFF7E2FDC01B02280FD8686A8007F7D5E2
:1008300071484FF4FA510068B0FBF1F0009000BF2E
:100840000098411E0091FAD20EE080E0C0F80080CE
:10085000FFF7CAFD074604E0FFF7C6FDC01B0228EC
:1008600075D8686A8007F7D42078400760D5E869B2
:100870000027C00008D4E86940F08050E861E869CA
:10088000012700F0805000905C480168C90513D42E
:100890000168834641F480710160FFF7A5FD82463F
:1008A00006E000BFFFF7A0FDA0EB0A0064284ED8C9
:1008B000DBF80000C005F5D5E06801280AD008B1D2
:1008C000052813D0286A20F001002862286A20F049
:1008D000040002E0286A40F001002862E06841F26A
:1008E000883B98B1FFF780FD82460BE0286A40F014
:1008F00004002862EEE700BFFFF776FDA0EB0A01D7
:1009000059455AD8286A8007F6D50CE0FFF76CFDE8
:10091000824605E0FFF768FDA0EB0A0159454CD877
:10092000286A8007F6D41FB1E86920F08050E8619A
:10093000E06988B36968C1F38101022944D00228C3
:10094000C6F8608004D0FFF74FFD044638E034E07D
:10095000FFF74AFD074604E0FFF746FDC01B0228EB
:100960002BD828688001F7D4206AB0F5803F05D1E4
:100970006868A16820F4003008436860D4E9080181
:100980000843696821F4741108436860C6F86090F0
:10099000FFF72AFD044606E025E000BFFFF724FD2F
:1009A000001B022809D828688001F7D51BE000BF8A
:1009B000FFF71AFD001B022802D90320BDE8F88FBB
:1009C00028688001F4D40EE00128F7D06868226A14
:1009D00000F48031914204D1616A00F470108842C1
:1009E00001D00120EAE70020E8E700000010024003
:1009F000000042428004424230000020007000406B
:100A000090F85100704770B5040005D00025A5622C
:100A100094F8510010B106E0012070BD84F85050E8
:100A2000204600F02FF8022084F851002068016869
:100A300021F040010160D4E901010843D4E9031227
:100A40001143084361690843218B01F40071084395
:100A5000E1690843216A0843A16A084321680860E4
:100A6000A069042101EA1040216848602068C1693A
:100A700021F40061C1616565012084F85100002006
:100A800070BD000030B585B000240094019402943C
:100A9000039400681549884225D11548C16941F47D
:100AA0008041C161C16901F480410491816941F0D3
:100AB0000801816180690F4D00F0080004904FF437
:100AC00020400090022001900320039069462846B0
:100AD000FFF794FB4FF48040CDE9000469462846B7
:100AE0000294FFF78BFB05B030BD000000380040DA
:100AF00000100240000C01402DE9F84F044690F828
:100B0000500000271D461646894601280DD04FF09B
:100B1000010B84F850B0FFF767FC804694F8510051
:100B2000BA46012804D002278EE00220BDE8F88FE3
:100B3000B9F1000F7DD0002E7BD0032084F8510046
:100B4000C4F854A0C4F83090A686E686C4F838A04D
:100B5000A4F83CA0A4F83EA0C4F844A0C4F840A067
:100B6000A068B0F5004F04D12068016841F48041CD
:100B7000016020680168490603D4016841F0400122
:100B80000160E068B0F5006F606803D030B3012EFB
:100B900024D040E008B1012E1CD1206B21680088D0
:100BA000C86006E020688168890709D5216B09883B
:100BB000C160206B801C2063E08E401EE08609E04F
:100BC000FFF712FCA0EB0800A84202D3681C01D07A
:100BD00031E07DB3E08E0028E4D11FE0206B216876
:100BE0000078087306E020688168890709D5216BC1
:100BF00009780173206B401C2063E08E401EE08664
:100C000009E0FFF7F1FBA0EB0800A84202D3681C43
:100C100001D010E075B1E08E0028E4D142462946AB
:100C2000204600F033FD08B120206065A06820B1A7
:100C300007E008E0FFE7032706E02068C168806856
:100C40000090606D00B1012784F851B084F850A085
:100C500038466BE72DE9F84F044690F8500000271E
:100C60000A9E1D4692468B464FF0010901280ED080
:100C7000012084F85000FFF7B7FB804694F851003C
:100C8000616801280CD0B1F5827F07D102E0022013
:100C9000BDE8F88FA16809B9042801D00227C2E095
:100CA000BBF1000F27D0BAF1000F24D01DB394F888
:100CB0005100042802D0052084F85100002060650E
:100CC000C4F838A0E587A587C4F830B0E586A586C6
:100CD0002064606420680168490603D4016841F01B
:100CE00040010160E068B0F5006F606805D0E8B3CE
:100CF000012D46D07FE0012795E008B1012D39D1C3
:100D0000206B21680088C860206B801C2063E08E07
:100D1000401EE0862EE02068816889070FD5E18EAD
:100D200069B1B9F1010F0AD1216B0988C160206B4B
:100D3000801C2063E08E401EE0864FF00009206892
:100D40008168C9070CD0E18F51B1C068A16B0880E0
:100D5000A06B801CA063E08F401EE0874FF001096C
:100D6000FFF742FBA0EB0800B04200E009E001D32E
:100D7000701C50D1E08E0028CDD1E08F0028CAD160
:100D80003FE0206B216800780873206B401C2063D3
:100D9000E08E401EE0862EE02068816889070FD52E
:100DA000E18E69B1B9F1010F0AD1216B09780173A4
:100DB000206B401C2063E08E401EE0864FF000094F
:100DC00020688168C9070CD0E18F51B1C068A16B60
:100DD0000870A06B401CA063E08F401EE0874FF0BE
:100DE0000109FFF701FBA0EB0800B04202D3701C21
:100DF00001D010E07EB1E08E0028CDD1E08F002838
:100E0000CAD142463146204600F040FC28B10127B5
:100E10002020606507E0032705E0A06818B9206876
:100E2000C16880680090012084F85100002084F897
:100E3000500038462CE7704710B5401EB0F1807F57
:100E400001D3012010BD4FF0E02460610F21601735
:100E500000F09BFD0020A06107202061002010BD54
:100E600010B5FFF7E8FF10BD70B5040004D094F88A
:100E70003900002510B106E0012070BD84F838501B
:100E8000204600F023F8242084F839002068C16847
:100E900021F40051C160204600F0DEFC20680169A9
:100EA00021F4904101612068416921F02A014161EA
:100EB0002068C16841F40051C160E563202084F8D6
:100EC000390084F83A00002070BD000030B585B0CC
:100ED0000024009401940294039400681449884209
:100EE00024D11448816941F480418161816901F410
:100EF00080410491816941F00401816180690E4D56
:100F000000F0040004904FF4007000900220019063
:100F10000320039069462846FFF770F92815CDE9AC
:100F20000004694628460294FFF768F905B030BD11
:100F30000038014000100240000801402DE9F8434C
:100F4000044690F839001F4616460D46202850D119
:100F5000A5B19EB194F8380001284AD0012084F848
:100F600038004FF00008C4F83C80212084F8390094
:100F7000FFF73AFAA6848146E68426E00120BDE820
:100F8000F883E08C401EE084A0684B46B0F5805F9B
:100F90004FF000024FF080012046009703D000F090
:100FA000B7FCE8B90DE000F0B3FCC8B928882168A7
:100FB000C0F308004860206908B16D1C05E0AD1C55
:100FC00003E0216815F8010B4860E08C0028D8D1B7
:100FD0004B46002240212046009700F099FC08B1C2
:100FE0000320CCE7202084F8390084F838800020E2
:100FF000C5E70220C3E7FEE710B504490448FFF740
:10100000C8F80249491E087010BD00001D000020EC
:101010000800002070B586B00024184800940194A0
:1010200002940394816941F020018161816901F09A
:1010300020010491816941F008018161816901F019
:1010400008010491816941F00401816180690C4EBD
:1010500000F004004FF480550490002229463046E9
:10106000FFF7BCF901200095CDE9010402200390AF
:1010700069463046FFF7C2F806B070BD0010024066
:10108000000801400C480B494FF4007201604FF416
:101090008271416000218160C1600161C0E9051277
:1010A0000822C0E90721416281620A21C162FFF77B
:1010B000AABC0000003800403C000020FEE770475A
:1010C000704700000648417811B14178491E4170CF
:1010D0008178002902D08178491E81707047000014
:1010E000030000207CB541F6FF75FFF749F80024A6
:1010F000FF2000F0F5FA641C0A2CF9DB00F0BEFAC0
:1011000040208DF8000000208DF801008DF80200CD
:101110008DF803008DF8040095208DF8050000245B
:101120006E46305D00F0DCFA641C062CF9DB00E052
:101130006D1E00F0BBFA012801D0002DF8D1FFF799
:101140001FF8FF2000F0CCFA0149012048707CBD57
:101150000000002010B5064C3220207000F0A6FAE6
:1011600000F0A4FAFF2802D021780029F8D110BDA0
:10117000050000202DE9F041114D04460A200E46DD
:1011800085F8000000F092FAFF2804D0FE2806D06F
:101190000020BDE8F08128780028F3D1F8E7274641
:1011A000651C00F083FA38706C1C00F07FFA287020
:1011B000B61EF4D100F07AFA00F078FA0120E8E7E0
:1011C0000400002070B50C460546FFF7C3FFFF285A
:1011D00001D0FF2070BD284600F082FA200E00F0FA
:1011E0007FFAC4F3074000F07BFAC4F3072000F055
:1011F00077FAE0B200F074FA0020402D06D0482DB6
:1012000006D000F06DFA4C2D06D007E0952000E0E6
:10121000872000F065FA01E000F048FA5FF00A0468
:1012200000F044FA0106D5D5641E14F0FF04F7D18E
:1012300070BD000070B50E4604460025FFF78AFF1A
:10124000FF2828D1304600F04BFAFD2E1FD0002693
:10125000207800F045FA6078A41C00F041FA761E70
:1012600016F0FF06F4D100F021FA00F01FFA00BFDB
:1012700000F01CFA044600F01F00052803D06D1C86
:10128000EDB2402DF4D900F011FA0028FBD004F0A3
:101290001F00052801D0002070BD012070BD000096
:1012A0002DE9F84310B10120BDE8F883DFF8208173
:1012B00098F80000800702D598F80000F4E7FFF7DF
:1012C00011FF00F0DBF9002421464020FFF77AFFF0
:1012D00001286CD13F4E642030704FF4D571482006
:1012E000FFF770FF01280DD000217720FFF76AFF7C
:1012F00001283ED800216920FFF764FF012838D873
:1013000002243DE000256F4600F0D0F978556D1CB1
:10131000EDB2042DF8D39DF80200012847D19DF8C5
:101320000300AA2843D1450700217720FFF74AFF91
:10133000012804D829466920FFF744FF10B130780E
:101340000028F1D1307890B300217A20FFF73AFFDE
:1013500068BB002400F0AAF93855641CE4B2042CE0
:10136000F8D39DF80000400601D506241FE00224B2
:101370001DE0012401E0022C02D00021412007E001
:1013800000217720FFF71EFF012804D800216920E3
:10139000FFF718FF10B130780028ECD1307828B171
:1013A0004FF400715020FFF70DFF00B100244546B7
:1013B00088F80240FEF7E4FE00F078F924B12878BE
:1013C00020F00100287001E00020687028786BE7A9
:1013D00000000020040000207FB515460E4610B125
:1013E000042004B070BD01244B48052E04D00078C1
:1013F000C00715D00320F4E747492A7849782AB175
:10140000012A07D0022A08D0042482E031B1002149
:10141000417003E0FFF766FE00E06970002478E0A9
:1014200000F02CF90B2E52D005DCE6B3012E07D0CC
:10143000022E69D142E00C2E4CD00D2E64D155E025
:1014400000214920FFF7BEFE70BB10216846FFF760
:1014500091FE48B39DF800100120B0EB911F0AD116
:101460009DF808209DF8091000EB022008440004B4
:101470008009286038E09DF805009DF80A1000F00A
:101480000F0000EBD1109DF809109DF8072001F026
:10149000030100EB41009DF80810890901EB82016E
:1014A0009DF8062001E00DE02FE002F0030201EBC1
:1014B0008221C01F491C8140296015E04FF4007053
:1014C000288011E0FFF746FEFF280DD01DE0002127
:1014D000492001E000214A20FFF774FEA8B910213D
:1014E0002846FFF747FE80B100240EE000217A2055
:1014F000FFF768FE40B9002400F0D8F8641CE4B29D
:1015000005F8010B042CF7D30424FEF739FE00F094
:10151000CDF8204665E70000000000202DE9F041ED
:101520001C4615460E4638B934B121480178C90722
:1015300004D00320BDE8F0810420FBE78078400759
:1015400000D4550200F09AF84FF40077012C294698
:1015500004D05220FFF736FE70B11AE05120FFF799
:1015600031FEE0B939463046FFF704FEB8B1FEF768
:1015700007FE00F09BF818E039463046FFF7FAFD09
:1015800018B1641E06F50076F6D100214C20FFF755
:1015900019FEFEF7F5FD00F089F824B905E0FEF725
:1015A000EFFD00F083F80120C4E70020C2E700004F
:1015B0000000002008B10120704701480078704702
:1015C000000000202DE9F0411C4616460F4638B9B0
:1015D00034B1294D2878C00704D00320BDE8F0813C
:1015E0000420FBE72878400701D50220F6E7A87819
:1015F000400700D4560200F041F8012C10D0A87822
:10160000800707D500217720FFF7DCFD2146572012
:10161000FFF7D8FD31465920FFF7D4FD78B11CE023
:1016200031465820FFF7CEFDF0B9FE213846FFF7CE
:1016300001FEC8B1FEF7A4FD00F038F819E0FC2166
:101640003846FFF7F7FD18B1641E07F50077F6D1AD
:10165000FD210020FFF7EEFD30B1FEF791FD00F017
:1016600025F834B10120B9E7FEF78AFD00F01EF835
:10167000F8E70020B2E700000000002000224FF44D
:1016800080510148FEF7AABE0008014038B50B465C
:10169000009204460022802100F032F8002804D095
:1016A000606D40F020006065032038BD0EB5FF205E
:1016B0008DF8080000208DF804000848FFF7A0F915
:1016C0000128FAD14FF47A700090012301AA02A9EF
:1016D0000248FFF7BFFA9DF804000EBD3C00002051
:1016E00001B50648FFF78CF90128FAD14FF47A7357
:1016F000012269460148FFF7FFF908BD3C000020C0
:101700002DE9F0411D4617460E460446DDF81880C7
:1017100008E0681C06D0FEF767FEA0EB0800A842B0
:101720000BD255B12068806836EA000030D0002026
:10173000B842EED10020BDE8F0812068416821F078
:10174000E00141606068B0F5827F0BD1A068B0F520
:10175000004F02D0B0F5806F04D12068016821F0FD
:1017600040010160A06AB0F5005F09D120680168FE
:1017700021F4005101602068016841F400510160CA
:10178000012084F85100002084F850000320D2E7A3
:101790000120CDE770470000084810B50178491CCA
:1017A000017001780A2903D300210170FFF78AFC38
:1017B000FEF720FEBDE81040FFF752BB03000020FB
:1017C00030B58FB028216846FEF7B3FC14210AA873
:1017D000FEF7AFFC01210804CDE9001000240294BB
:1017E00002250491CDE907504FF4E01009906846B6
:1017F000FEF776FF0F20CDE90A056802CDE90C401F
:1018000002210AA80E94FEF77FFE0FB030BD000043
:101810000D48016841F00101016041680B4A114027
:10182000416001680A4A11400160016821F4802189
:101830000160416821F4FE0141604FF41F018160A5
:101840000449C00308607047001002400000FFF820
:10185000FFFFF6FE08ED00E02DE9F04104460068C8
:101860000169E26821F44051114301612169A068D6
:101870000843616908432168CA6841F20C639A43CE
:101880000243CA6020684169A26921F44071114392
:1018900041611E49206864253226884202D1FEF744
:1018A000D9FE01E0FEF7C6FE00EBC00101EB00111E
:1018B00060686FF018078000B1FBF0F2B2FBF5F240
:1018C000B1FBF0F37A4303EB8202B1FBF0F306EBDA
:1018D0000212B2FBF5F2B3FBF5F302F0F00202EBF9
:1018E0000312B1FBF0F3B1FBF0F0B0FBF5F078437D
:1018F00003EB800006EB0010B0FBF5F0216800F070
:101900000F0010448860BDE8F081000000380140FD
:101910002DE9F041984617460E460446069D1DE007
:10192000681C1BD02DB1FEF75FFDA0EB0800A8429C
:1019300014D92068C16821F4D071C1602068416960
:1019400021F001014161202084F8390084F83A0037
:10195000002084F838000320BDE8F081206800688A
:1019600036EA000004D00020B842D9D00020F3E7C6
:101970000120F9E7FFF794BCFFF72EBDFFF7CEBDBE
:10198000FFF718BEFFF71EBEFEE70907090E002885
:1019900004DB00F1E02080F80014704700F00F0035
:1019A00000F1E02080F8141D704702E008C8121F03
:1019B00008C1002AFAD170477047002001E001C138
:1019C000121F002AFBD1704710B5044600F5805065
:1019D00000220271521EC262204601F017FA08B1BD
:1019E000032010BDB4F8FE01A0F52A41553901D0FD
:1019F000022010BD94F83600B4F8371040EA0121F7
:101A00000848B0EB012F08D094F85210B4F85320D6
:101A100041EA0221B0EB012F01D1002010BD0120CD
:101A200010BD00000046415400E0401C02780AB19D
:101A30008A42FAD1D0B27047F0B50022174B144653
:101A400000F5805002EB420653F826506DB107684E
:101A5000BD420BD103EB860587686E68BE4205D197
:101A60002D89C688B54204D000E00124521C022A08
:101A7000E8D3022A01D079B904E05CB9022909D07F
:101A80001220F0BD02EB420003EB80004089B0F56C
:101A9000807F01D00020F0BD1020F0BD6411002037
:101AA00030B50021064A0C4601EB410352F82350A1
:101AB000854201D142F82340491C0229F4D330BDAC
:101AC0006411002000F58050426A006800F58050E3
:101AD000438980784343B1FBF3F0121D02CA19B168
:101AE000884203D3401AF8E7002070471168084481
:101AF000704700F58050891E4269921E8A4201D8C3
:101B000000207047826A807801FB002070472DE931
:101B1000F04180460F0000F5805407D0404601F0A8
:101B200033F8022809D20120BDE8F081E66816B139
:101B30006069B04207D8012605E0411CF4D0616914
:101B40008142F1D83E46354660696D1CA84202D8F4
:101B50000225022E0AD32946404601F015F838B175
:101B6000411CE1D00128DFD0B542EDD10020DBE7F8
:101B70006FF070422946404601F064F930B957B120
:101B80002A463946404601F05DF920B101280DD0C2
:101B900001252846C8E7E5602069411CF9D0401EB0
:101BA0002061607940F001006071F2E74FF0FF358D
:101BB000EFE700002DE9F84F88460D6800E06D1C46
:101BC00029782F29FBD05C29F9D000F5805A002410
:101BD000DAF820702646A85D761C202817D32F2817
:101BE00015D05C2813D0FF2C31D2012100F0F2FD7A
:101BF0005FEA00092BD0B9F1800F04D2014668A03A
:101C0000FFF712FF18BB27F81490641CE3E7AA192A
:101C1000C8F80020202801D2042516E0002514E091
:101C200007EB440030F8020C20280DD02E280BD0F2
:101C30006CB1002027F814000B222021DAF81800DC
:101C400001F0DDF8002606E0641E002CE8D1062035
:101C5000BDE8F88F761C37F816002028FAD02E2819
:101C6000F8D01EB145F0030500E0641E2CB107EB6F
:101C7000440030F8020C2E28F7D1002081464FF0A6
:101C8000080B009037F8160006F101065FEA00081D
:101C900024D0B8F1200F04D0B8F12E0F04D1A64201
:101CA00002D045F00305EDE70098584501D2A64261
:101CB0001AD1BBF10B0F0FD0A64201D045F003059E
:101CC0000CD84FF0080000904FEA896026464FF08C
:101CD0000B0B4FEA1069D5E745F00305DAF8180059
:101CE0000178E52938D039E04046B8F1800F10D3AB
:101CF000002100F06FFD5FEA000805D02B4901EBE1
:101D0000080010F8800C804645F00205B8F1000F7D
:101D100004D0014626A0FFF787FE20B14FF05F08F0
:101D200045F003050FE0A8F14100192802D849F059
:101D3000020908E0A8F16100192804D8413049F0EF
:101D400001091FFA80F8DAF81820009902F80180DA
:101D50000098401C009095E705210170BBF1080F29
:101D600003D14FEA89604FEA1069C9F38100032863
:101D700003D06FEA0901890701D145F00205A907DF
:101D800009D409F00301012901D145F0100501280A
:101D900001D145F00805DAF81800C572002057E7B0
:101DA000222A3A3C3E3F7C7F000000004E31000872
:101DB0002B2C3B3D5B5D0000401E022815D20C4BD6
:101DC00000EB400203EB82014889B0F5807F05D02B
:101DD00008B1401E80B2488110B104E00020FAE74B
:101DE000002043F8220000207047022070470000C6
:101DF000641100202DE9F14F82B00021029800F01B
:101E000007FA00287AD1029DFF2005F580554FF68C
:101E1000FF7A00908146A5F824A02969286800F07F
:101E2000F5FF06000DD16C69207848B1E17AE5280C
:101E300001F03F016DD00A0704D50F2969D107E0F1
:101E4000042671E00F2903D0B9F1000F4AD04FE00A
:101E5000296A89B3420606D5627B009220F04000D1
:101E6000EA888146AA84484535D1627B009882423F
:101E700031D101912078A04620F04000401E00EBB7
:101E800080010027DFF8A8B001EBC006012400BFE5
:101E90001BF8071001EB0800008874B100F0B6FCD5
:101EA0000446FF2E17D2019830F81600761C00F079
:101EB000ADFCA0420FD102E02FE050450BD17F1CBA
:101EC0000D2FE5D398F80000400608D53CB10198E5
:101ED00030F8160018B1FF2000F0FF091DE0A9F14D
:101EE0000100F9E7204601F087F8009988421BD0ED
:101EF000A869C17AC9070CD10A2102E015E0491E80
:101F000006D314F8012B10F8013BD21AF7D000E0E9
:101F100052B14FF0FF09A5F824A00021029800F06B
:101F200009F806003FF479AF3046BDE8FE8F0000A7
:101F3000CE3100082DE9F04100F580540F46E688C7
:101F4000761C3004000C38D0216991B3206800F56C
:101F5000805253895B09B6FBF3F503FB1563002B35
:101F600067D1491C2161E16821B3538992785B09EB
:101F7000B6FBF3F3521E13425BD100F005FE05469B
:101F800001281FD9681C39D0206841F21401095872
:101F9000A94248D86FB1E168FFF7B9FD05000FD03D
:101FA000012D0FD0681C29D0206801F086F828BBCD
:101FB0000AE002E01089B0423BD80420BDE8F0817D
:101FC0000720FBE70220F9E741F20A0120680A5ADC
:101FD000002100F014FF29462068FFF78AFD2168E0
:101FE000002701F580514FF00108C8620FE000BFE3
:101FF00080F80480206801F060F808B10120DDE776
:10200000206800F58050C16A491C7F1CC1622068AD
:1020100000F580508178B942EAD8216801F58051F5
:10202000C96AC91BC162E56029462068FFF761FDE6
:102030002061E68041F20A012068095A4909B6FB8D
:10204000F1F201FB126100EB411060610020B5E785
:102050002DE9F14F84B00C22049C684604F58054AD
:10206000A769266A394600F0C1FE9DF80B00C0073B
:1020700018D00020F872012520622B4632466946AE
:10208000384600F041FD0498FFF7B4FE10B96D1C0E
:10209000642DF2D3642D0BD004280AD19DF80B00D7
:1020A000F87226629DF80B0080070FD5002004E02F
:1020B000072005B0BDE8F08F401C36F8101000294D
:1020C000FAD10D211930B0FBF1F600E00126049D94
:1020D0000021284600F09CF8A8B94FF0000805F54B
:1020E00080573969386800F091FE60B978690078E6
:1020F000E5280BD050B14FF0000801212846FFF72A
:1021000019FF0028EDD0042812D012E008F10108D0
:102110003046B045F1D1461E5FEA060A59D0E18843
:102120000498A1EB0A0100F073F8050003D06BE0FE
:102130000720054668E0A06900F05EFF0390216972
:10214000206800F063FE05005ED16169D4F820903C
:10215000039848730F20C8720020087388760AF02D
:10216000FF0BC876ABF1010000EB800202EBC0056B
:1021700000234FF6FF7E254E4A1C01E0604503D048
:1021800039F81500F4466D1CF75CC85516F8038045
:10219000070A08F8027000B960465B1C0D2BEDD3EE
:1021A000704502D039F8150008B94BF0400B81F8A2
:1021B00000B02168012001F58051087100210498C8
:1021C000FFF7B8FE05001FD1AAF101005FEA000A7F
:1021D000B5D12169206800F019FE050014D1202234
:1021E0000021606900F00BFED4E905010B2200F02C
:1021F000FDFDA0696169C07A00F0180008732168CC
:10220000012001F580510871284652E7CE310008BF
:1022100070B500F580540D46E180A368012B42D0D3
:10222000206800F58050416999423CD923B9017872
:10223000032906D1436A23B1418980784E09464378
:1022400012E00189A9422ED9406A13E000F09CFCFB
:102250000346401C25D0022B25D3206800F5805072
:10226000406998421FD9AD1B2068B5421946EDD28E
:10227000FFF73FFCE360B0B121680A4601F58051E9
:102280004B895B09B5FBF3F3184420614889400989
:10229000B5FBF0F100FB115002EB40106061002033
:1022A00070BD012070BD022070BD0000084910B54E
:1022B0000B5C002253B901220A540A1801EB80007A
:1022C000127A40680168104688470246104610BDE1
:1022D0007C13002030B4054C231804EB80001B7ADB
:1022E000406804691846A44630BC60477C1300204F
:1022F00030B4054D2C1805EB8000247A40688568C1
:102300002046AC4630BC60477C130020044A1118BC
:1023100002EB8000097A40684268084610470000D6
:102320007C13002030B4054D2C1805EB8000247A76
:102330004068C5682046AC4630BC60477C1300202E
:1023400010B5044600F0F5F900280DD1204600F044
:10235000DDFE002808D104F58054A06AFFF72CFDAB
:10236000002801D10021216010BD2DE9FC4100258C
:102370009046074604464E1E11E001AB0122694615
:10238000404600F00FF9019801280AD19DF800009D
:102390000D2804D06D1C04F8010B0A2801D0B542A9
:1023A000EBDB0020207015B13846BDE8FC81002031
:1023B000FBE700002DE9F74FADF5825D98B100F520
:1023C00080564FF0000802F01F0741F2440127F049
:1023D000010269440DF58050C6F8008000F028FA2B
:1023E000040006D0D8E0092013B00DF5805DBDE8EB
:1023F000F08F41F228010DF58050694481616849F0
:102400000162EB46416C584600F048FB04000DF5B4
:10241000805045690BD11DB1780803D0012102E03D
:10242000062404E000215846FFF706FB044617F097
:102430001C0F75D04FF0010AECB1042C14D158498F
:102440000020183902E0401C022805D200EB4002AF
:1024500051F82220002AF6D1022803D05846FFF76F
:10246000F7FD00E0122004460DF5805047F0080704
:10247000456954B190E0E87A10F0110F01D00724BB
:102480008AE0780701D5082486E0380756D500F0A1
:10249000EEFBA873010AE973010C2974000E68743D
:1024A00085F80B8085F81C8085F81D8085F81E80D6
:1024B0000DF5805085F81F800068294600F044FC27
:1024C00081460021284600F08FFD0DF58050B9F1BE
:1024D000000F006800F5805080F804A02CD00DF5A6
:1024E00080504946006800F58050D0F82CA00DF5CA
:1024F0008050006800F035FD04004DD10DF580508E
:10250000A9F10101006800F58050C1600DF580500F
:102510005146006800F07AFC04000BD03CE0FFE775
:10252000D4BBE87AC10601D5042435E0B90701D54A
:10253000C007A4D1380701D547F020070DF580501A
:10254000006800F58050C06AC6E90705780801D028
:10255000012100E00021584600F0AAFBB062E8B17A
:10256000B7710DF5805086F8078047460068294608
:1025700000F0EAFB3061287FD5F81D1040EA012009
:10258000C6E90270B7610DF580507762006830606F
:1025900000F58050C088B080204625E70224FBE784
:1025A0007C1100202DE9F04F884687B00021994624
:1025B00015468346196000F0A9FD002812D10BF5DD
:1025C0008054E07900280DD1A079C00709D0D4E962
:1025D0000201081A01274FF0020A854200D9054678
:1025E000A2E0072007B0BDE8F08F2068A16800F5E1
:1025F00080535E89B1FBF6F206FB1212002A73D1FA
:10260000B1FBF6F29B785B1E1A4012F0FF0610D168
:1026100029B1626A2AB15846FFF754FA04E02069EA
:1026200002E0616900F0B0FA02281FD3411C55D0C6
:10263000606161692068FFF75CFAB8B130440090CE
:10264000206800F580504189B5FBF1F1039151B349
:10265000721881788A4201D9891B039140784146DA
:10266000039B009AFFF744FEC0BB03E084F807A079
:102670000220B7E7A07940060ED5A1690098081A94
:102680000399884208D2216801F580514A89594648
:1026900000FB028000F0AAFB206800F5805046890C
:1026A0000398464336E0A26900998A421AD0A1797C
:1026B000490609D5407801235946FFF733FE68B92A
:1026C000A07920F04000A0712068012300F580501F
:1026D00059464078009AFFF70BFE18B1E7710120C8
:1026E00080E701E00098A0612068A16800F58050B3
:1026F0004089B1FBF0F200FB1212861AAE4200D9FB
:102700002E46B1FBF0F200FB12115944324640460E
:1027100000F06CFBA068B0443044A060D9F8000021
:102720008119AD1BC9F80010002D7FF45EAF0020A9
:1027300058E770B5054600F0E9FC002811D105F511
:102740008054A1798A060CD548060FD5206801234C
:1027500000F5805029464078A269FFF7E3FD08B1F3
:10276000012070BDA07920F04000A071E1692068CF
:1027700000F04CFB0028F4D1256AE87A40F02000F4
:10278000E872207B2877A089000A6877E068000C4F
:10279000A877E068000EE8772846216900F024FC5D
:1027A00000F065FAA875010AE975010C2976000E9A
:1027B00068760020A874E874A079012120F0200038
:1027C000A071206800F5805001712068BDE870405C
:1027D00000F01FBC802804D30B4A51B1FF2801D957
:1027E0000020704702EB4000A0F58050B0F8000FC9
:1027F000704732F81130834203D0491C89B28029D6
:10280000F7D38031C8B27047083200080021064B68
:1028100000E0491C33F81120002A04D08242F8D18C
:10282000024830F81100704708330008E834000807
:102830002DE9FF5F4FF0000B0546C0F800B01746CA
:10284000084600F016FA060003D50B2004B0BDE8D8
:10285000F09F8F4850F826409CB12C6004F58055BD
:10286000287820B16878FFF751FDC1070BD085F8B3
:1028700000B0F0B26870FFF719FDC10708D003205F
:10288000E4E70C20E2E70FB1400704D40020DDE7C5
:102890001FB1400701D50A20D8E741F20A016218AA
:1028A00068780221FFF716FD78BB6889B0F5007FD4
:1028B00034D3B0F5805F31D8002631462046FFF78B
:1028C00083F8012826D100204FEA0D0204EB001105
:1028D00091F8C23101F5DF712BB10B7AD1F80910F3
:1028E00043EA012100E0002142F82010401C0428A6
:1028F000ECD300274FEA020858F8276036B131467A
:102900002046FFF761F810B90AE007E002207F1CBB
:10291000042FF1D3032801D0F0BB01E0012095E79B
:10292000B4F80B00B5F80AC060455FD1E18A29B957
:1029300094F82400D4F8251040EA0121A961207CF4
:102940008A46E870012801D002284FD100FB01F926
:10295000607BA87000B3411E084247D1B4F8111043
:102960004FEA5C12B1FBF2F302FB131329819BB90E
:10297000B4F813702FB994F82030D4F8217043EADA
:102980000727E38943B1B1FBF2F803EB09024244A4
:1029900097422BD3BF1A00E028E0B7FBF0F028B332
:1029A000012740F6F678404500D302274FF6F67827
:1029B000404500D30327801C3244AA623344686137
:1029C000C5E90763032F13D081B103EB09016962E5
:1029D000022F18D000F0010100EB400001EB500085
:1029E000401E6044B0FBFCF151450ED90D202DE78F
:1029F0000029FBD194F82C10D4F82D20800041EA56
:102A000002216962ECE74000EAE74FF0FF302861FD
:102A1000E86080206871032F2ED1208E01282BD1F1
:102A20002046711C00F0F2F930BB85F805B0B4F80F
:102A3000FE01A0F52A4155391ED12078D4F80110A5
:102A400040EA01201349884216D194F8E401D4F8F1
:102A5000E51140EA0120104988420DD194F8E801BF
:102A6000D4F8E91140EA0120286194F8EC01D4F887
:102A7000ED1140EA0120E86005492F70091F088820
:102A8000401C0880E8802046FFF70AF8FEE60000B8
:102A900038000020525261417272416173B505469F
:102AA000019801782F2901D05C2901D1401C0190A7
:102AB00005F580540026A66001980078202805D2EC
:102AC00000212846FFF7A4FB66617CBD01A92846CA
:102AD000FFF770F80028F8D12846FFF78BF9A169B5
:102AE000C97A28B10428F0D14907EED405207CBD6D
:102AF0004907FCD46169C87AC006F7D5206800F0A0
:102B000023F9A060E2E700007CB516461C460546A6
:102B10000B2200F06BF9052C11D91A4A0CE00021A8
:102B2000B61C2346044663F35F044008E30300D564
:102B30005440491C1029F4D330880028EFD10721D4
:102B40004FEA0D0204F00F003030392800D9C01DC3
:102B50005054491E2409F5D17E205054002000E035
:102B6000401C884202D22B5C202BF9D1082902D2CA
:102B7000535C491C00E020232B54401C0828F5D34B
:102B80007CBD0000211001002DE9F0470D460746ED
:102B900002290DD307F580546069A84208D920782E
:102BA0004FF0FF36012807D0022832D0032844D046
:102BB00001263046BDE8F087618905EB5508B8FB72
:102BC000F1F0216A0144384600F020F90028F0D1E4
:102BD0006189B8FBF1F201FB128008F1010817F8D6
:102BE0000090B8FBF1F0216A0144384600F00EF97C
:102BF0000028DED16189B8FBF1F201FB1280395C5B
:102C000049EA0120E90701D00609D2E7C0F30B0623
:102C1000CFE76089216A4008B5FBF0F001443846EF
:102C200000F0F4F80028C4D161896800B0FBF1F22B
:102C300001FB120038440688BBE76089216A8008DE
:102C4000B5FBF0F00144384600F0E0F80028B0D1C0
:102C50006189A800B0FBF1F201FB12003844017851
:102C6000D0F8010041EA002020F07046A1E70020E2
:102C7000704710B504464FF0FF302268002A13D089
:102C8000114600E0491C0B78202B0ED33A2BF9D1CA
:102C900012F8013B303B0A2B06D28A4204D1002BAA
:102CA00002D1491C1846216010BD002010BD000053
:102CB000F0B500F5805323481C68002202EB420562
:102CC00050F82560A64209D100EB85059F686E6823
:102CD000BE4203D12D89DE88B54202D0521C022AA1
:102CE000ECD3022A18D1002202E0521C022A05D29B
:102CF00002EB420550F82550002DF6D1022A13D0E0
:102D000002EB420540F8254000EB85049E686660B2
:102D1000DB88238100236381002902EB420100EB61
:102D20008101498902D019B10020F0BD491C01E0A0
:102D30004FF4807102EB420300EB83004181501C91
:102D4000F0BD000064110020024602F58052488B5D
:102D50001278032A02D1898A40EA014070470000B4
:102D6000FDF750FBFEF72CFDFEF754F9FEF78AF94C
:102D7000FEF742F9164815490C2201604FF416512E
:102D8000416000218160C160C0E904128161C161BC
:102D9000FEF76AF80E4801220EA14030FFF70AFB49
:102DA0004FF4FA7405E02046FDF716FA0E4800F0DD
:102DB0000BF9074A642140320B48FFF7D6FA002886
:102DC000F1D103484030FFF7BBFAFEE7003801407D
:102DD0009400002066696C652063687579656E20D3
:102DE0006261792E747874000011002004E000BF45
:102DF00011F8013B00F8013B521EF9D27047C9B2ED
:102E000001E000F8011B521EFBD270472DE9F04192
:102E100000F580540746E06A0E460025B0420ED009
:102E2000384600F04AF9050009D16078012332469E
:102E30003946FFF75DFA08B16E1E0125E6622846A5
:102E4000BDE8F0812DE9F04717460D4606460229F8
:102E500004D306F580546069A84202D80220BDE878
:102E6000F087217807F0FF094FF0010A012924D0EB
:102E700002295DD00329F1D16089216A8008B5FB60
:102E8000F0F001443046FFF7C1FF0028E7D1628926
:102E9000A900B1FBF2F302FB13118A194FF0704342
:102EA000D2F8011003EA0121394311700B0A537063
:102EB0000B0C9370090ED17050E0618905EB550839
:102EC000B8FBF1F0216A01443046FFF79FFF00286C
:102ED000C5D16189B8FBF1F201FB1280304408F1E1
:102EE0000108E90703D0017869F31F1100E03946B2
:102EF000017084F804A06189B8FBF1F0216A0144F3
:102F00003046FFF783FF0028A9D16289B8FBF2F3AE
:102F100002FB13813144EA0702D0C7F3071205E030
:102F20000A78C7F3032302F0F0021A430A7015E08F
:102F30006089216A4008B5FBF0F001443046FFF794
:102F400065FF00288BD162896900B1FBF2F302FBB7
:102F5000131131443A0A81F800904A7084F804A0B1
:102F60007DE72DE9F0410F468046022918D308F588
:102F700080556869B84213D900261FE0394640469B
:102F8000FFF702FE04001CD0012C09D0601C09D000
:102F9000002239464046FFF755FF060011D103E0F5
:102FA00002260EE001260CE02869411C05D0401CD9
:102FB0002861687940F00100687127466869B84265
:102FC000DCD83046BDE8F08110B50446FDF7BCF80A
:102FD0002146C2B2BDE810404FF4FA630148FDF744
:102FE000ADBF00009400002081760A0AC2760A0C68
:102FF0000275090E41757047014600200B224308F7
:1030000003EBC01011F8013B521E1844C0B2F6D1B8
:10301000704770B5044600F050F806004BD104F537
:103020008055287803283FD1687901283CD16A89E6
:1030300000212046FFF7E3FE552084F8FE01AA2078
:1030400084F8FF015220207060706120A07041213F
:10305000E170722284F8E42184F8E52184F8E61115
:1030600084F8E701286984F8E801010A84F8E91185
:10307000010C84F8EA11000E84F8EB01E86884F88A
:10308000EC01010A84F8ED11010C84F8EE11000E38
:1030900084F8EF01EA690123521CEA62687821464C
:1030A000FFF740F900206871002268781146FFF7A9
:1030B00011F900B10126304670BD2DE9F04100F54F
:1030C0008054804620790027E8B1E56A60780123C2
:1030D0002A464146FFF726F908B1012713E00020F0
:1030E0002071206AA169281A88420CD2E67808E08B
:1030F000A0690123054460782A464146FFF712F98A
:10310000761E022EF4D23846BDE8F08110B580B1AB
:1031100000F58050016861B101F580510A7842B133
:10312000CA888088824204D14878FFF7EFF8C00748
:1031300000D0092010BD00000000000000000102C6
:103140000304060708090000000001020304809A36
:1031500090B68EB78F80D2D3D4D8D7DE8E8F909290
:1031600092E299E3EAEB59999A9D9C9D9E9FB5D670
:10317000E0E9A5A5A6A7A8A9AAABAC21AEAFB0B1BE
:10318000B2B3B4B5B6B7B8B9BABBBCBDBEBFC0C1A7
:10319000C2C3C4C5C7C7C8C9CACBCCCDCECFD0D196
:1031A000D2D3D4D5D6D7D8D9DADBDCDDDEDFE0E187
:1031B000E2E3E5E5E6E7E7E9EAEBEDEDEEEFF0F176
:1031C000F2F3F4F5F6F7F8F9FAFBFCFDFEFF010364
:1031D0000507090E10121416181C1E000004000228
:1031E00000018000400020001000080004000200E0
:1031F0000000008000400020001000080040002077
:103200000010000800040002C700FC00E900E20012
:10321000E400E000E500E700EA00EB00E800EF0072
:10322000EE00EC00C400C500C900E600C600F400D2
:10323000F600F200FB00F900FF00D600DC00F80009
:10324000A300D800D7009201E100ED00F300FA00DE
:10325000F100D100AA00BA00BF00AE00AC00BD0072
:10326000BC00A100AB00BB0091259225932502254F
:103270002425C100C200C000A9006325512557259F
:103280005D25A200A5001025142534252C251C251C
:1032900000253C25E300C3005A25542569256625F1
:1032A000602550256C25A400F000D000CA00CB009A
:1032B000C8003101CD00CE00CF0018250C2588258F
:1032C0008425A600CC008025D300DF00D400D200E6
:1032D000F500D500B500FE00DE00DA00DB00D90005
:1032E000FD00DD00AF00B400AD00B1001720BE004E
:1032F000B600A700F700B800B000A800B700B900FA
:10330000B300B200A025A000610062006300640069
:10331000650066006700680069006A006B006C0069
:103320006D006E006F007000710072007300740019
:10333000750076007700780079007A00A100A2007D
:10334000A300A500AC00AF00E000E100E200E30054
:10335000E400E500E600E700E800E900EA00EB0031
:10336000EC00ED00EE00EF00F000F100F200F300E1
:10337000F400F500F600F800F900FA00FB00FC008C
:10338000FD00FE00FF000101030105010701090125
:103390000B010D010F011101130115011701190195
:1033A0001B011D011F012101230125012701290105
:1033B0002B012D012F0131013301350137013A0174
:1033C0003C013E01400142014401460148014B01DC
:1033D0004D014F01510153015501570159015B0145
:1033E0005D015F01610163016501670169016B01B5
:1033F0006D016F0171017301750177017A017C0123
:103400007E019201B103B203B303B403B503B60363
:10341000B703B803B903BA03BB03BC03BD03BE03C0
:10342000BF03C003C103C303C403C503C603C7036B
:10343000C803C903CA03300431043204330434041A
:10344000350436043704380439043A043B043C0498
:103450003D043E043F044004410442044304440448
:10346000450446044704480449044A044B044C04F8
:103470004D044E044F0451045204530454045504A3
:1034800056045704580459045A045B045C045E044F
:103490005F047021712172217321742175217621BD
:1034A0007721782179217A217B217C217D217E2140
:1034B0007F2141FF42FF43FF44FF45FF46FF47FF97
:1034C00048FF49FF4AFF4BFF4CFF4DFF4EFF4FFFA8
:1034D00050FF51FF52FF53FF54FF55FF56FF57FF58
:1034E00058FF59FF5AFF00004100420043004400CA
:1034F000450046004700480049004A004B004C0088
:103500004D004E004F005000510052005300540037
:10351000550056005700580059005A002100E0FF9E
:10352000E1FFE5FFE2FFE3FFC000C100C200C3000E
:10353000C400C500C600C700C800C900CA00CB004F
:10354000CC00CD00CE00CF00D000D100D200D300FF
:10355000D400D500D600D800D900DA00DB00DC00AA
:10356000DD00DE007801000102010401060108010E
:103570000A010C010E0110011201140116011801BB
:103580001A011C011E01200122012401260128012B
:103590002A012C012E01300132013401360139019A
:1035A0003B013D013F0141014301450147014A0102
:1035B0004C014E01500152015401560158015A016B
:1035C0005C015E01600162016401660168016A01DB
:1035D0006C016E01700172017401760179017B0149
:1035E0007D01910191039203930394039503960344
:1035F0009703980399039A039B039C039D039E03DF
:103600009F03A003A103A303A403A503A603A70389
:10361000A803A903AA031004110412041304140438
:10362000150416041704180419041A041B041C04B6
:103630001D041E041F042004210422042304240466
:10364000250426042704280429042A042B042C0416
:103650002D042E042F0401040204030404040504B1
:1036600006040704080409040A040B040C040E04ED
:103670000F0460216121622163216421652166219B
:103680006721682169216A216B216C216D216E21DE
:103690006F2121FF22FF23FF24FF25FF26FF27FFA5
:1036A00028FF29FF2AFF2BFF2CFF2DFF2EFF2FFFC6
:1036B00030FF31FF32FF33FF34FF35FF36FF37FF76
:1036C00038FF39FF3AFF0000E8360008000000200C
:1036D0003C000000AA190008243700083C00002024
:1036E0004C170000BA19000801000000000000009B
:1036F00075190008811900087D190008851900084E
:10370000791900080000000000000000010000001E
:1037100010000000000000000024F4000000000081
:0437200000000000A5
:04000005080000ED02
:00000001FF
